{
  "_format": "hh-sol-artifact-1",
  "contractName": "Project",
  "sourceName": "contracts/Project2.sol",
  "abi": [
    {
      "inputs": [],
      "stateMutability": "nonpayable",
      "type": "constructor"
    },
    {
      "anonymous": false,
      "inputs": [
        {
          "indexed": false,
          "internalType": "uint256",
          "name": "id",
          "type": "uint256"
        }
      ],
      "name": "DepositedToken",
      "type": "event"
    },
    {
      "anonymous": false,
      "inputs": [
        {
          "indexed": false,
          "internalType": "uint256",
          "name": "id",
          "type": "uint256"
        }
      ],
      "name": "MovedToAborted",
      "type": "event"
    },
    {
      "anonymous": false,
      "inputs": [
        {
          "indexed": false,
          "internalType": "uint256",
          "name": "id",
          "type": "uint256"
        }
      ],
      "name": "MovedToFinished",
      "type": "event"
    },
    {
      "anonymous": false,
      "inputs": [
        {
          "indexed": false,
          "internalType": "uint256",
          "name": "id",
          "type": "uint256"
        }
      ],
      "name": "MovedToInProgress",
      "type": "event"
    },
    {
      "anonymous": false,
      "inputs": [
        {
          "indexed": false,
          "internalType": "uint256",
          "name": "id",
          "type": "uint256"
        }
      ],
      "name": "MovedToInReview",
      "type": "event"
    },
    {
      "anonymous": false,
      "inputs": [
        {
          "indexed": true,
          "internalType": "bytes32",
          "name": "role",
          "type": "bytes32"
        },
        {
          "indexed": true,
          "internalType": "bytes32",
          "name": "previousAdminRole",
          "type": "bytes32"
        },
        {
          "indexed": true,
          "internalType": "bytes32",
          "name": "newAdminRole",
          "type": "bytes32"
        }
      ],
      "name": "RoleAdminChanged",
      "type": "event"
    },
    {
      "anonymous": false,
      "inputs": [
        {
          "indexed": true,
          "internalType": "bytes32",
          "name": "role",
          "type": "bytes32"
        },
        {
          "indexed": true,
          "internalType": "address",
          "name": "account",
          "type": "address"
        },
        {
          "indexed": true,
          "internalType": "address",
          "name": "sender",
          "type": "address"
        }
      ],
      "name": "RoleGranted",
      "type": "event"
    },
    {
      "anonymous": false,
      "inputs": [
        {
          "indexed": true,
          "internalType": "bytes32",
          "name": "role",
          "type": "bytes32"
        },
        {
          "indexed": true,
          "internalType": "address",
          "name": "account",
          "type": "address"
        },
        {
          "indexed": true,
          "internalType": "address",
          "name": "sender",
          "type": "address"
        }
      ],
      "name": "RoleRevoked",
      "type": "event"
    },
    {
      "inputs": [],
      "name": "DEFAULT_ADMIN_ROLE",
      "outputs": [
        {
          "internalType": "bytes32",
          "name": "",
          "type": "bytes32"
        }
      ],
      "stateMutability": "view",
      "type": "function"
    },
    {
      "inputs": [
        {
          "internalType": "uint256",
          "name": "id",
          "type": "uint256"
        }
      ],
      "name": "contributor",
      "outputs": [
        {
          "internalType": "address",
          "name": "",
          "type": "address"
        }
      ],
      "stateMutability": "view",
      "type": "function"
    },
    {
      "inputs": [
        {
          "internalType": "address payable",
          "name": "contributor_",
          "type": "address"
        },
        {
          "internalType": "address payable[]",
          "name": "reviewers",
          "type": "address[]"
        },
        {
          "internalType": "uint256",
          "name": "id",
          "type": "uint256"
        }
      ],
      "name": "createTask",
      "outputs": [],
      "stateMutability": "payable",
      "type": "function"
    },
    {
      "inputs": [],
      "name": "dataBaseId",
      "outputs": [
        {
          "internalType": "uint256",
          "name": "",
          "type": "uint256"
        }
      ],
      "stateMutability": "view",
      "type": "function"
    },
    {
      "inputs": [
        {
          "internalType": "uint256",
          "name": "id",
          "type": "uint256"
        },
        {
          "internalType": "address",
          "name": "_token",
          "type": "address"
        },
        {
          "internalType": "uint256",
          "name": "_amount",
          "type": "uint256"
        }
      ],
      "name": "depositToken",
      "outputs": [],
      "stateMutability": "nonpayable",
      "type": "function"
    },
    {
      "inputs": [
        {
          "internalType": "bytes32",
          "name": "role",
          "type": "bytes32"
        }
      ],
      "name": "getRoleAdmin",
      "outputs": [
        {
          "internalType": "bytes32",
          "name": "",
          "type": "bytes32"
        }
      ],
      "stateMutability": "view",
      "type": "function"
    },
    {
      "inputs": [
        {
          "internalType": "bytes32",
          "name": "role",
          "type": "bytes32"
        },
        {
          "internalType": "address",
          "name": "account",
          "type": "address"
        }
      ],
      "name": "grantRole",
      "outputs": [],
      "stateMutability": "nonpayable",
      "type": "function"
    },
    {
      "inputs": [
        {
          "internalType": "bytes32",
          "name": "role",
          "type": "bytes32"
        },
        {
          "internalType": "address",
          "name": "account",
          "type": "address"
        }
      ],
      "name": "hasRole",
      "outputs": [
        {
          "internalType": "bool",
          "name": "",
          "type": "bool"
        }
      ],
      "stateMutability": "view",
      "type": "function"
    },
    {
      "inputs": [
        {
          "internalType": "uint256",
          "name": "id",
          "type": "uint256"
        }
      ],
      "name": "moveToFinished",
      "outputs": [],
      "stateMutability": "nonpayable",
      "type": "function"
    },
    {
      "inputs": [
        {
          "internalType": "uint256",
          "name": "id",
          "type": "uint256"
        }
      ],
      "name": "moveToReview",
      "outputs": [],
      "stateMutability": "nonpayable",
      "type": "function"
    },
    {
      "inputs": [
        {
          "internalType": "bytes[]",
          "name": "data",
          "type": "bytes[]"
        }
      ],
      "name": "multicall",
      "outputs": [
        {
          "internalType": "bytes[]",
          "name": "results",
          "type": "bytes[]"
        }
      ],
      "stateMutability": "nonpayable",
      "type": "function"
    },
    {
      "inputs": [
        {
          "internalType": "bytes32",
          "name": "role",
          "type": "bytes32"
        },
        {
          "internalType": "address",
          "name": "account",
          "type": "address"
        }
      ],
      "name": "renounceRole",
      "outputs": [],
      "stateMutability": "nonpayable",
      "type": "function"
    },
    {
      "inputs": [
        {
          "internalType": "bytes32",
          "name": "role",
          "type": "bytes32"
        },
        {
          "internalType": "address",
          "name": "account",
          "type": "address"
        }
      ],
      "name": "revokeRole",
      "outputs": [],
      "stateMutability": "nonpayable",
      "type": "function"
    },
    {
      "inputs": [
        {
          "internalType": "uint256",
          "name": "id",
          "type": "uint256"
        }
      ],
      "name": "state",
      "outputs": [
        {
          "internalType": "enum TaskUtils.State",
          "name": "",
          "type": "uint8"
        }
      ],
      "stateMutability": "view",
      "type": "function"
    },
    {
      "inputs": [
        {
          "internalType": "bytes4",
          "name": "interfaceId",
          "type": "bytes4"
        }
      ],
      "name": "supportsInterface",
      "outputs": [
        {
          "internalType": "bool",
          "name": "",
          "type": "bool"
        }
      ],
      "stateMutability": "view",
      "type": "function"
    }
  ],
  "bytecode": "0x60806040523480156200001157600080fd5b50620000276000801b336200002d60201b60201c565b62000190565b6200003f82826200011e60201b60201c565b6200011a57600160008084815260200190815260200160002060000160008373ffffffffffffffffffffffffffffffffffffffff1673ffffffffffffffffffffffffffffffffffffffff16815260200190815260200160002060006101000a81548160ff021916908315150217905550620000bf6200018860201b60201c565b73ffffffffffffffffffffffffffffffffffffffff168173ffffffffffffffffffffffffffffffffffffffff16837f2f8788117e7eff1d82e926ec794901d17c78024a50270940304540a733656f0d60405160405180910390a45b5050565b600080600084815260200190815260200160002060000160008373ffffffffffffffffffffffffffffffffffffffff1673ffffffffffffffffffffffffffffffffffffffff16815260200190815260200160002060009054906101000a900460ff16905092915050565b600033905090565b61360880620001a06000396000f3fe6080604052600436106100e85760003560e01c80633e4f49e61161008a578063ac9650d811610059578063ac9650d814610318578063d547741f14610355578063db38ee891461037e578063fe9b13ec146103a7576100e8565b80633e4f49e61461023657806365158b3b1461027357806391d14854146102b0578063a217fddf146102ed576100e8565b8063248a9ca3116100c6578063248a9ca31461017c5780632f2ff15d146101b9578063314edbff146101e257806336568abe1461020d576100e8565b806301ffc9a7146100ed5780630a9306d71461012a5780632303642a14610153575b600080fd5b3480156100f957600080fd5b50610114600480360381019061010f919061214d565b6103c3565b6040516101219190612195565b60405180910390f35b34801561013657600080fd5b50610151600480360381019061014c9190612244565b61043d565b005b34801561015f57600080fd5b5061017a60048036038101906101759190612297565b610737565b005b34801561018857600080fd5b506101a3600480360381019061019e91906122fa565b610990565b6040516101b09190612336565b60405180910390f35b3480156101c557600080fd5b506101e060048036038101906101db9190612351565b6109af565b005b3480156101ee57600080fd5b506101f76109d0565b60405161020491906123a0565b60405180910390f35b34801561021957600080fd5b50610234600480360381019061022f9190612351565b6109d6565b005b34801561024257600080fd5b5061025d60048036038101906102589190612297565b610a59565b60405161026a9190612432565b60405180910390f35b34801561027f57600080fd5b5061029a60048036038101906102959190612297565b610a86565b6040516102a7919061245c565b60405180910390f35b3480156102bc57600080fd5b506102d760048036038101906102d29190612351565b610ac6565b6040516102e49190612195565b60405180910390f35b3480156102f957600080fd5b50610302610b30565b60405161030f9190612336565b60405180910390f35b34801561032457600080fd5b5061033f600480360381019061033a91906124dc565b610b37565b60405161034c919061267b565b60405180910390f35b34801561036157600080fd5b5061037c60048036038101906103779190612351565b610c43565b005b34801561038a57600080fd5b506103a560048036038101906103a09190612297565b610c64565b005b6103c160048036038101906103bc9190612819565b610dae565b005b60007f7965db0b000000000000000000000000000000000000000000000000000000007bffffffffffffffffffffffffffffffffffffffffffffffffffffffff1916827bffffffffffffffffffffffffffffffffffffffffffffffffffffffff19161480610436575061043582611173565b5b9050919050565b61044a6000801b33610ac6565b610489576040517f08c379a00000000000000000000000000000000000000000000000000000000081526004016104809061290b565b60405180910390fd5b60048081111561049c5761049b6123bb565b5b6104a584610a59565b60048111156104b7576104b66123bb565b5b036104f7576040517f08c379a00000000000000000000000000000000000000000000000000000000081526004016104ee9061299d565b60405180910390fd5b61050182826111dd565b610540576040517f08c379a000000000000000000000000000000000000000000000000000000000815260040161053790612a2f565b60405180910390fd5b6001600084815260200190815260200160002060010160405180604001604052808473ffffffffffffffffffffffffffffffffffffffff16815260200183815250908060018154018082558091505060019003906000526020600020906002020160009091909190915060008201518160000160006101000a81548173ffffffffffffffffffffffffffffffffffffffff021916908373ffffffffffffffffffffffffffffffffffffffff160217905550602082015181600101555050600160008481526020019081526020016000206001016001806000868152602001908152602001600020600101805490506106389190612a7e565b8154811061064957610648612ab2565b5b906000526020600020906002020160000160009054906101000a900473ffffffffffffffffffffffffffffffffffffffff1673ffffffffffffffffffffffffffffffffffffffff166323b872dd3330846040518463ffffffff1660e01b81526004016106b793929190612ae1565b6020604051808303816000875af11580156106d6573d6000803e3d6000fd5b505050506040513d601f19601f820116820180604052508101906106fa9190612b44565b507fa5951fe7a4e8495422dbb654dfe01251f9b51f7dd95ba87e2a0dfe8605779a4d8360405161072a91906123a0565b60405180910390a1505050565b61075a600160008381526020019081526020016000206002016001015433610ac6565b610799576040517f08c379a000000000000000000000000000000000000000000000000000000000815260040161079090612be3565b60405180910390fd5b600260048111156107ad576107ac6123bb565b5b6107b682610a59565b60048111156107c8576107c76123bb565b5b14610808576040517f08c379a00000000000000000000000000000000000000000000000000000000081526004016107ff90612c75565b60405180910390fd5b60006001600083815260200190815260200160002060060154111561090e576000600160008381526020019081526020016000206006015490506000600160008481526020019081526020016000206006018190555060008061086a83611266565b915091506108cd826001600087815260200190815260200160002060050160009054906101000a900473ffffffffffffffffffffffffffffffffffffffff1673ffffffffffffffffffffffffffffffffffffffff1661129790919063ffffffff16565b61090a817390f79bf6eb2c4f870365e785982e1f101e93b90673ffffffffffffffffffffffffffffffffffffffff1661129790919063ffffffff16565b5050505b6109178161138b565b60046001600083815260200190815260200160002060000160006101000a81548160ff02191690836004811115610951576109506123bb565b5b02179055507fd95897a36710f239643993e12a22608b87b0b227fc1322d0fd23a5de0ca73b508160405161098591906123a0565b60405180910390a150565b6000806000838152602001908152602001600020600101549050919050565b6109b882610990565b6109c181611550565b6109cb8383611564565b505050565b60025481565b6109de611644565b73ffffffffffffffffffffffffffffffffffffffff168173ffffffffffffffffffffffffffffffffffffffff1614610a4b576040517f08c379a0000000000000000000000000000000000000000000000000000000008152600401610a4290612d07565b60405180910390fd5b610a55828261164c565b5050565b60006001600083815260200190815260200160002060000160009054906101000a900460ff169050919050565b60006001600083815260200190815260200160002060050160009054906101000a900473ffffffffffffffffffffffffffffffffffffffff169050919050565b600080600084815260200190815260200160002060000160008373ffffffffffffffffffffffffffffffffffffffff1673ffffffffffffffffffffffffffffffffffffffff16815260200190815260200160002060009054906101000a900460ff16905092915050565b6000801b81565b60608282905067ffffffffffffffff811115610b5657610b556126db565b5b604051908082528060200260200182016040528015610b8957816020015b6060815260200190600190039081610b745790505b50905060005b83839050811015610c3c57610c0b30858584818110610bb157610bb0612ab2565b5b9050602002810190610bc39190612d36565b8080601f016020809104026020016040519081016040528093929190818152602001838380828437600081840152601f19601f8201169050808301925050505050505061172d565b828281518110610c1e57610c1d612ab2565b5b60200260200101819052508080610c3490612d99565b915050610b8f565b5092915050565b610c4c82610990565b610c5581611550565b610c5f838361164c565b505050565b610c87600160008381526020019081526020016000206002016000015433610ac6565b610cc6576040517f08c379a0000000000000000000000000000000000000000000000000000000008152600401610cbd9061290b565b60405180910390fd5b60016004811115610cda57610cd96123bb565b5b610ce382610a59565b6004811115610cf557610cf46123bb565b5b14610d35576040517f08c379a0000000000000000000000000000000000000000000000000000000008152600401610d2c90612e53565b60405180910390fd5b60026001600083815260200190815260200160002060000160006101000a81548160ff02191690836004811115610d6f57610d6e6123bb565b5b02179055507f982685ad6a353d52dd2f822303a5ce18ebeaf82a79b1d08a4b68329f65c36ff581604051610da391906123a0565b60405180910390a150565b610dbb6000801b33610ac6565b610dfa576040517f08c379a0000000000000000000000000000000000000000000000000000000008152600401610df190612ee5565b60405180910390fd5b610e156001600083815260200190815260200160002061175a565b15610e55576040517f08c379a0000000000000000000000000000000000000000000000000000000008152600401610e4c90612f77565b60405180910390fd5b6000600160008381526020019081526020016000209050610eab826040518060400160405280600881526020017f52455649455745520000000000000000000000000000000000000000000000008152506117b7565b816002016001018190555060005b610ec5845160086117f2565b811015610f0a57610ef78260020160010154858381518110610eea57610ee9612ab2565b5b6020026020010151611564565b8080610f0290612d99565b915050610eb9565b5060018160000160006101000a81548160ff02191690836004811115610f3357610f326123bb565b5b0217905550838160050160006101000a81548173ffffffffffffffffffffffffffffffffffffffff021916908373ffffffffffffffffffffffffffffffffffffffff16021790555060008160060181905550600034905080826006016000828254610f9e9190612f97565b92505081905550610fe4836040518060400160405280600b81526020017f434f4e5452494255544f520000000000000000000000000000000000000000008152506117b7565b826002016000018190555061102482600201600001548360050160009054906101000a900473ffffffffffffffffffffffffffffffffffffffff16611564565b81600160008581526020019081526020016000206000820160009054906101000a900460ff168160000160006101000a81548160ff021916908360048111156110705761106f6123bb565b5b0217905550600182018160010190805461108b929190611f63565b5060028201816002016000820154816000015560018201548160010155505060048201816004019080546110c092919061202c565b506005820160009054906101000a900473ffffffffffffffffffffffffffffffffffffffff168160050160006101000a81548173ffffffffffffffffffffffffffffffffffffffff021916908373ffffffffffffffffffffffffffffffffffffffff160217905550600682015481600601559050507f8dd921195c602c5c82eb1d3e548d7a066d9ba69d1601f469ef3263a99cb811358360405161116491906123a0565b60405180910390a15050505050565b60007f01ffc9a7000000000000000000000000000000000000000000000000000000007bffffffffffffffffffffffffffffffffffffffffffffffffffffffff1916827bffffffffffffffffffffffffffffffffffffffffffffffffffffffff1916149050919050565b6000818373ffffffffffffffffffffffffffffffffffffffff1663dd62ed3e33306040518363ffffffff1660e01b815260040161121b929190612fcb565b602060405180830381865afa158015611238573d6000803e3d6000fd5b505050506040513d601f19601f8201168201806040525081019061125c9190613009565b1015905092915050565b6000806000611278606085606461180b565b9050600081856112889190612a7e565b90508181935093505050915091565b804710156112da576040517f08c379a00000000000000000000000000000000000000000000000000000000081526004016112d190613082565b60405180910390fd5b60008273ffffffffffffffffffffffffffffffffffffffff1682604051611300906130d3565b60006040518083038185875af1925050503d806000811461133d576040519150601f19603f3d011682016040523d82523d6000602084013e611342565b606091505b5050905080611386576040517f08c379a000000000000000000000000000000000000000000000000000000000815260040161137d9061315a565b60405180910390fd5b505050565b60005b600160008381526020019081526020016000206001018054905081101561154c5760006001600084815260200190815260200160002060010182815481106113d9576113d8612ab2565b5b90600052602060002090600202016001015411156115395760016000838152602001908152602001600020600101818154811061141957611418612ab2565b5b906000526020600020906002020160000160009054906101000a900473ffffffffffffffffffffffffffffffffffffffff1673ffffffffffffffffffffffffffffffffffffffff1663a9059cbb6001600085815260200190815260200160002060050160009054906101000a900473ffffffffffffffffffffffffffffffffffffffff166001600086815260200190815260200160002060010184815481106114c5576114c4612ab2565b5b9060005260206000209060020201600101546040518363ffffffff1660e01b81526004016114f49291906131d9565b6020604051808303816000875af1158015611513573d6000803e3d6000fd5b505050506040513d601f19601f820116820180604052508101906115379190612b44565b505b808061154490612d99565b91505061138e565b5050565b6115618161155c611644565b6118e6565b50565b61156e8282610ac6565b61164057600160008084815260200190815260200160002060000160008373ffffffffffffffffffffffffffffffffffffffff1673ffffffffffffffffffffffffffffffffffffffff16815260200190815260200160002060006101000a81548160ff0219169083151502179055506115e5611644565b73ffffffffffffffffffffffffffffffffffffffff168173ffffffffffffffffffffffffffffffffffffffff16837f2f8788117e7eff1d82e926ec794901d17c78024a50270940304540a733656f0d60405160405180910390a45b5050565b600033905090565b6116568282610ac6565b1561172957600080600084815260200190815260200160002060000160008373ffffffffffffffffffffffffffffffffffffffff1673ffffffffffffffffffffffffffffffffffffffff16815260200190815260200160002060006101000a81548160ff0219169083151502179055506116ce611644565b73ffffffffffffffffffffffffffffffffffffffff168173ffffffffffffffffffffffffffffffffffffffff16837ff6391f5c32d9c69d2a47ea670b442974b53935d1edc7fd64eb21e047a839171b60405160405180910390a45b5050565b606061175283836040518060600160405280602781526020016135ac6027913961196b565b905092915050565b60008073ffffffffffffffffffffffffffffffffffffffff168260050160009054906101000a900473ffffffffffffffffffffffffffffffffffffffff1673ffffffffffffffffffffffffffffffffffffffff1614159050919050565b6000816117c3846119f1565b6040516020016117d4929190613295565b60405160208183030381529060405280519060200120905092915050565b60008183106118015781611803565b825b905092915050565b60008060008019858709858702925082811083820303915050600081036118465783828161183c5761183b6132c4565b5b04925050506118df565b80841161185257600080fd5b60008486880990508281118203915080830392506000600186190186169050808604955080840493506001818260000304019050808302841793506000600287600302189050808702600203810290508087026002038102905080870260020381029050808702600203810290508087026002038102905080870260020381029050808502955050505050505b9392505050565b6118f08282610ac6565b611967576118fd81611abf565b61190b8360001c6020611aec565b60405160200161191c92919061338b565b6040516020818303038152906040526040517f08c379a000000000000000000000000000000000000000000000000000000000815260040161195e91906133fe565b60405180910390fd5b5050565b60606000808573ffffffffffffffffffffffffffffffffffffffff16856040516119959190613451565b600060405180830381855af49150503d80600081146119d0576040519150601f19603f3d011682016040523d82523d6000602084013e6119d5565b606091505b50915091506119e686838387611d28565b925050509392505050565b606060006001611a0084611d9d565b01905060008167ffffffffffffffff811115611a1f57611a1e6126db565b5b6040519080825280601f01601f191660200182016040528015611a515781602001600182028036833780820191505090505b509050600082602001820190505b600115611ab4578080600190039150507f3031323334353637383961626364656600000000000000000000000000000000600a86061a8153600a8581611aa857611aa76132c4565b5b04945060008503611a5f575b819350505050919050565b6060611ae58273ffffffffffffffffffffffffffffffffffffffff16601460ff16611aec565b9050919050565b606060006002836002611aff9190613468565b611b099190612f97565b67ffffffffffffffff811115611b2257611b216126db565b5b6040519080825280601f01601f191660200182016040528015611b545781602001600182028036833780820191505090505b5090507f300000000000000000000000000000000000000000000000000000000000000081600081518110611b8c57611b8b612ab2565b5b60200101907effffffffffffffffffffffffffffffffffffffffffffffffffffffffffffff1916908160001a9053507f780000000000000000000000000000000000000000000000000000000000000081600181518110611bf057611bef612ab2565b5b60200101907effffffffffffffffffffffffffffffffffffffffffffffffffffffffffffff1916908160001a90535060006001846002611c309190613468565b611c3a9190612f97565b90505b6001811115611cda577f3031323334353637383961626364656600000000000000000000000000000000600f861660108110611c7c57611c7b612ab2565b5b1a60f81b828281518110611c9357611c92612ab2565b5b60200101907effffffffffffffffffffffffffffffffffffffffffffffffffffffffffffff1916908160001a905350600485901c945080611cd3906134aa565b9050611c3d565b5060008414611d1e576040517f08c379a0000000000000000000000000000000000000000000000000000000008152600401611d159061351f565b60405180910390fd5b8091505092915050565b60608315611d8a576000835103611d8257611d4285611ef0565b611d81576040517f08c379a0000000000000000000000000000000000000000000000000000000008152600401611d789061358b565b60405180910390fd5b5b829050611d95565b611d948383611f13565b5b949350505050565b600080600090507a184f03e93ff9f4daa797ed6e38ed64bf6a1f0100000000000000008310611dfb577a184f03e93ff9f4daa797ed6e38ed64bf6a1f0100000000000000008381611df157611df06132c4565b5b0492506040810190505b6d04ee2d6d415b85acef81000000008310611e38576d04ee2d6d415b85acef81000000008381611e2e57611e2d6132c4565b5b0492506020810190505b662386f26fc100008310611e6757662386f26fc100008381611e5d57611e5c6132c4565b5b0492506010810190505b6305f5e1008310611e90576305f5e1008381611e8657611e856132c4565b5b0492506008810190505b6127108310611eb5576127108381611eab57611eaa6132c4565b5b0492506004810190505b60648310611ed85760648381611ece57611ecd6132c4565b5b0492506002810190505b600a8310611ee7576001810190505b80915050919050565b6000808273ffffffffffffffffffffffffffffffffffffffff163b119050919050565b600082511115611f265781518083602001fd5b806040517f08c379a0000000000000000000000000000000000000000000000000000000008152600401611f5a91906133fe565b60405180910390fd5b82805482825590600052602060002090600202810192821561201b5760005260206000209160020282015b8281111561201a5782826000820160009054906101000a900473ffffffffffffffffffffffffffffffffffffffff168160000160006101000a81548173ffffffffffffffffffffffffffffffffffffffff021916908373ffffffffffffffffffffffffffffffffffffffff16021790555060018201548160010155505091600201919060020190611f8e565b5b509050612028919061207e565b5090565b82805482825590600052602060002090810192821561206d5760005260206000209182015b8281111561206c578254825591600101919060010190612051565b5b50905061207a91906120c4565b5090565b5b808211156120c057600080820160006101000a81549073ffffffffffffffffffffffffffffffffffffffff021916905560018201600090555060020161207f565b5090565b5b808211156120dd5760008160009055506001016120c5565b5090565b6000604051905090565b600080fd5b600080fd5b60007fffffffff0000000000000000000000000000000000000000000000000000000082169050919050565b61212a816120f5565b811461213557600080fd5b50565b60008135905061214781612121565b92915050565b600060208284031215612163576121626120eb565b5b600061217184828501612138565b91505092915050565b60008115159050919050565b61218f8161217a565b82525050565b60006020820190506121aa6000830184612186565b92915050565b6000819050919050565b6121c3816121b0565b81146121ce57600080fd5b50565b6000813590506121e0816121ba565b92915050565b600073ffffffffffffffffffffffffffffffffffffffff82169050919050565b6000612211826121e6565b9050919050565b61222181612206565b811461222c57600080fd5b50565b60008135905061223e81612218565b92915050565b60008060006060848603121561225d5761225c6120eb565b5b600061226b868287016121d1565b935050602061227c8682870161222f565b925050604061228d868287016121d1565b9150509250925092565b6000602082840312156122ad576122ac6120eb565b5b60006122bb848285016121d1565b91505092915050565b6000819050919050565b6122d7816122c4565b81146122e257600080fd5b50565b6000813590506122f4816122ce565b92915050565b6000602082840312156123105761230f6120eb565b5b600061231e848285016122e5565b91505092915050565b612330816122c4565b82525050565b600060208201905061234b6000830184612327565b92915050565b60008060408385031215612368576123676120eb565b5b6000612376858286016122e5565b92505060206123878582860161222f565b9150509250929050565b61239a816121b0565b82525050565b60006020820190506123b56000830184612391565b92915050565b7f4e487b7100000000000000000000000000000000000000000000000000000000600052602160045260246000fd5b600581106123fb576123fa6123bb565b5b50565b600081905061240c826123ea565b919050565b600061241c826123fe565b9050919050565b61242c81612411565b82525050565b60006020820190506124476000830184612423565b92915050565b61245681612206565b82525050565b6000602082019050612471600083018461244d565b92915050565b600080fd5b600080fd5b600080fd5b60008083601f84011261249c5761249b612477565b5b8235905067ffffffffffffffff8111156124b9576124b861247c565b5b6020830191508360208202830111156124d5576124d4612481565b5b9250929050565b600080602083850312156124f3576124f26120eb565b5b600083013567ffffffffffffffff811115612511576125106120f0565b5b61251d85828601612486565b92509250509250929050565b600081519050919050565b600082825260208201905092915050565b6000819050602082019050919050565b600081519050919050565b600082825260208201905092915050565b60005b8381101561258f578082015181840152602081019050612574565b60008484015250505050565b6000601f19601f8301169050919050565b60006125b782612555565b6125c18185612560565b93506125d1818560208601612571565b6125da8161259b565b840191505092915050565b60006125f183836125ac565b905092915050565b6000602082019050919050565b600061261182612529565b61261b8185612534565b93508360208202850161262d85612545565b8060005b85811015612669578484038952815161264a85826125e5565b9450612655836125f9565b925060208a01995050600181019050612631565b50829750879550505050505092915050565b600060208201905081810360008301526126958184612606565b905092915050565b60006126a8826121e6565b9050919050565b6126b88161269d565b81146126c357600080fd5b50565b6000813590506126d5816126af565b92915050565b7f4e487b7100000000000000000000000000000000000000000000000000000000600052604160045260246000fd5b6127138261259b565b810181811067ffffffffffffffff82111715612732576127316126db565b5b80604052505050565b60006127456120e1565b9050612751828261270a565b919050565b600067ffffffffffffffff821115612771576127706126db565b5b602082029050602081019050919050565b600061279561279084612756565b61273b565b905080838252602082019050602084028301858111156127b8576127b7612481565b5b835b818110156127e157806127cd88826126c6565b8452602084019350506020810190506127ba565b5050509392505050565b600082601f830112612800576127ff612477565b5b8135612810848260208601612782565b91505092915050565b600080600060608486031215612832576128316120eb565b5b6000612840868287016126c6565b935050602084013567ffffffffffffffff811115612861576128606120f0565b5b61286d868287016127eb565b925050604061287e868287016121d1565b9150509250925092565b600082825260208201905092915050565b7f43616c6c6572206973206e6f74206120436f6e7472696275746f7220746f207460008201527f686973205461736b2e0000000000000000000000000000000000000000000000602082015250565b60006128f5602983612888565b915061290082612899565b604082019050919050565b60006020820190508181036000830152612924816128e8565b9050919050565b7f43616e206e6f74206d616b652061206465706f736974207768656e207374617460008201527f652069732046696e69736865642e000000000000000000000000000000000000602082015250565b6000612987602e83612888565b91506129928261292b565b604082019050919050565b600060208201905081810360008301526129b68161297a565b9050919050565b7f4572726f722c20616c6c6f77616e6365206f6620746f6b656e2062656c6f772060008201527f7265717565737465642064656f7073697420616d6f756e742e00000000000000602082015250565b6000612a19603983612888565b9150612a24826129bd565b604082019050919050565b60006020820190508181036000830152612a4881612a0c565b9050919050565b7f4e487b7100000000000000000000000000000000000000000000000000000000600052601160045260246000fd5b6000612a89826121b0565b9150612a94836121b0565b9250828203905081811115612aac57612aab612a4f565b5b92915050565b7f4e487b7100000000000000000000000000000000000000000000000000000000600052603260045260246000fd5b6000606082019050612af6600083018661244d565b612b03602083018561244d565b612b106040830184612391565b949350505050565b612b218161217a565b8114612b2c57600080fd5b50565b600081519050612b3e81612b18565b92915050565b600060208284031215612b5a57612b596120eb565b5b6000612b6884828501612b2f565b91505092915050565b7f43616c6c6572206973206e6f742061205265766965776572206f66207468697360008201527f205461736b2e0000000000000000000000000000000000000000000000000000602082015250565b6000612bcd602683612888565b9150612bd882612b71565b604082019050919050565b60006020820190508181036000830152612bfc81612bc0565b9050919050565b7f43616e206f6e6c79206d6f766520746f2046696e69736865642069662063757260008201527f72656e7420737461746520697320496e5265766965772e000000000000000000602082015250565b6000612c5f603783612888565b9150612c6a82612c03565b604082019050919050565b60006020820190508181036000830152612c8e81612c52565b9050919050565b7f416363657373436f6e74726f6c3a2063616e206f6e6c792072656e6f756e636560008201527f20726f6c657320666f722073656c660000000000000000000000000000000000602082015250565b6000612cf1602f83612888565b9150612cfc82612c95565b604082019050919050565b60006020820190508181036000830152612d2081612ce4565b9050919050565b600080fd5b600080fd5b600080fd5b60008083356001602003843603038112612d5357612d52612d27565b5b80840192508235915067ffffffffffffffff821115612d7557612d74612d2c565b5b602083019250600182023603831315612d9157612d90612d31565b5b509250929050565b6000612da4826121b0565b91507fffffffffffffffffffffffffffffffffffffffffffffffffffffffffffffffff8203612dd657612dd5612a4f565b5b600182019050919050565b7f43616e206f6e6c79206d6f766520746f2052657669657720696620637572726560008201527f6e7420737461746520697320496e50726f67726573732e000000000000000000602082015250565b6000612e3d603783612888565b9150612e4882612de1565b604082019050919050565b60006020820190508181036000830152612e6c81612e30565b9050919050565b7f43616c6c6572206973206e6f7420616e2041646d696e206f662074686973205060008201527f726f6a6563742e00000000000000000000000000000000000000000000000000602082015250565b6000612ecf602783612888565b9150612eda82612e73565b604082019050919050565b60006020820190508181036000830152612efe81612ec2565b9050919050565b7f546865726520697320616c72656164792061207461736b20776974682074686560008201527f2063616c6c696e672049442061737369676e65642e0000000000000000000000602082015250565b6000612f61603583612888565b9150612f6c82612f05565b604082019050919050565b60006020820190508181036000830152612f9081612f54565b9050919050565b6000612fa2826121b0565b9150612fad836121b0565b9250828201905080821115612fc557612fc4612a4f565b5b92915050565b6000604082019050612fe0600083018561244d565b612fed602083018461244d565b9392505050565b600081519050613003816121ba565b92915050565b60006020828403121561301f5761301e6120eb565b5b600061302d84828501612ff4565b91505092915050565b7f416464726573733a20696e73756666696369656e742062616c616e6365000000600082015250565b600061306c601d83612888565b915061307782613036565b602082019050919050565b6000602082019050818103600083015261309b8161305f565b9050919050565b600081905092915050565b50565b60006130bd6000836130a2565b91506130c8826130ad565b600082019050919050565b60006130de826130b0565b9150819050919050565b7f416464726573733a20756e61626c6520746f2073656e642076616c75652c207260008201527f6563697069656e74206d61792068617665207265766572746564000000000000602082015250565b6000613144603a83612888565b915061314f826130e8565b604082019050919050565b6000602082019050818103600083015261317381613137565b9050919050565b6000819050919050565b600061319f61319a613195846121e6565b61317a565b6121e6565b9050919050565b60006131b182613184565b9050919050565b60006131c3826131a6565b9050919050565b6131d3816131b8565b82525050565b60006040820190506131ee60008301856131ca565b6131fb6020830184612391565b9392505050565b600081519050919050565b600081905092915050565b600061322382613202565b61322d818561320d565b935061323d818560208601612571565b80840191505092915050565b7f5f00000000000000000000000000000000000000000000000000000000000000600082015250565b600061327f60018361320d565b915061328a82613249565b600182019050919050565b60006132a18285613218565b91506132ac82613272565b91506132b88284613218565b91508190509392505050565b7f4e487b7100000000000000000000000000000000000000000000000000000000600052601260045260246000fd5b7f416363657373436f6e74726f6c3a206163636f756e7420000000000000000000600082015250565b600061332960178361320d565b9150613334826132f3565b601782019050919050565b7f206973206d697373696e6720726f6c6520000000000000000000000000000000600082015250565b600061337560118361320d565b91506133808261333f565b601182019050919050565b60006133968261331c565b91506133a28285613218565b91506133ad82613368565b91506133b98284613218565b91508190509392505050565b60006133d082613202565b6133da8185612888565b93506133ea818560208601612571565b6133f38161259b565b840191505092915050565b6000602082019050818103600083015261341881846133c5565b905092915050565b600061342b82612555565b61343581856130a2565b9350613445818560208601612571565b80840191505092915050565b600061345d8284613420565b915081905092915050565b6000613473826121b0565b915061347e836121b0565b925082820261348c816121b0565b915082820484148315176134a3576134a2612a4f565b5b5092915050565b60006134b5826121b0565b9150600082036134c8576134c7612a4f565b5b600182039050919050565b7f537472696e67733a20686578206c656e67746820696e73756666696369656e74600082015250565b6000613509602083612888565b9150613514826134d3565b602082019050919050565b60006020820190508181036000830152613538816134fc565b9050919050565b7f416464726573733a2063616c6c20746f206e6f6e2d636f6e7472616374000000600082015250565b6000613575601d83612888565b91506135808261353f565b602082019050919050565b600060208201905081810360008301526135a481613568565b905091905056fe416464726573733a206c6f772d6c6576656c2064656c65676174652063616c6c206661696c6564a26469706673582212200787643781c4d17b2c88ebdd48825ade6c7413fba7791717dfaf49c393feeb4664736f6c63430008120033",
  "linkReferences": {},
  "deployedLinkReferences": {}
}